{
  "address": "0x5cfB11f5416b1FCF81DF1C9c404F67D6e36f71dd",
  "abi": [
    {
      "inputs": [],
      "stateMutability": "nonpayable",
      "type": "constructor"
    },
    {
      "anonymous": false,
      "inputs": [
        {
          "indexed": false,
          "internalType": "bytes32",
          "name": "groupHash",
          "type": "bytes32"
        },
        {
          "indexed": true,
          "internalType": "address",
          "name": "user",
          "type": "address"
        },
        {
          "indexed": false,
          "internalType": "uint256",
          "name": "amount",
          "type": "uint256"
        }
      ],
      "name": "FundsAdded",
      "type": "event"
    },
    {
      "anonymous": false,
      "inputs": [
        {
          "indexed": false,
          "internalType": "bytes32",
          "name": "groupHash",
          "type": "bytes32"
        },
        {
          "indexed": false,
          "internalType": "address",
          "name": "creator",
          "type": "address"
        },
        {
          "indexed": false,
          "internalType": "string",
          "name": "groupName",
          "type": "string"
        }
      ],
      "name": "GroupCreated",
      "type": "event"
    },
    {
      "anonymous": false,
      "inputs": [
        {
          "indexed": false,
          "internalType": "bytes32",
          "name": "groupHash",
          "type": "bytes32"
        },
        {
          "indexed": true,
          "internalType": "address",
          "name": "to",
          "type": "address"
        },
        {
          "indexed": false,
          "internalType": "uint256",
          "name": "amount",
          "type": "uint256"
        }
      ],
      "name": "GroupFundsTransferred",
      "type": "event"
    },
    {
      "anonymous": false,
      "inputs": [
        {
          "indexed": false,
          "internalType": "bytes32",
          "name": "groupHash",
          "type": "bytes32"
        },
        {
          "indexed": true,
          "internalType": "address",
          "name": "member",
          "type": "address"
        },
        {
          "indexed": true,
          "internalType": "address",
          "name": "addedBy",
          "type": "address"
        }
      ],
      "name": "MemberAdded",
      "type": "event"
    },
    {
      "anonymous": false,
      "inputs": [
        {
          "indexed": true,
          "internalType": "address",
          "name": "from",
          "type": "address"
        },
        {
          "indexed": true,
          "internalType": "address",
          "name": "to",
          "type": "address"
        },
        {
          "indexed": false,
          "internalType": "uint256",
          "name": "amount",
          "type": "uint256"
        }
      ],
      "name": "PaymentProcessed",
      "type": "event"
    },
    {
      "anonymous": false,
      "inputs": [
        {
          "indexed": false,
          "internalType": "bytes32",
          "name": "groupHash",
          "type": "bytes32"
        },
        {
          "indexed": true,
          "internalType": "address",
          "name": "from",
          "type": "address"
        },
        {
          "indexed": true,
          "internalType": "address",
          "name": "to",
          "type": "address"
        },
        {
          "indexed": false,
          "internalType": "uint256",
          "name": "amount",
          "type": "uint256"
        },
        {
          "indexed": false,
          "internalType": "string",
          "name": "message",
          "type": "string"
        }
      ],
      "name": "SplitRequestCreated",
      "type": "event"
    },
    {
      "inputs": [
        {
          "internalType": "bytes32",
          "name": "_groupHash",
          "type": "bytes32"
        }
      ],
      "name": "addFundsToGroup",
      "outputs": [],
      "stateMutability": "payable",
      "type": "function"
    },
    {
      "inputs": [
        {
          "internalType": "bytes32",
          "name": "_groupHash",
          "type": "bytes32"
        },
        {
          "internalType": "address",
          "name": "_member",
          "type": "address"
        }
      ],
      "name": "addToGroup",
      "outputs": [],
      "stateMutability": "nonpayable",
      "type": "function"
    },
    {
      "inputs": [
        {
          "internalType": "string",
          "name": "_groupName",
          "type": "string"
        }
      ],
      "name": "createGroup",
      "outputs": [
        {
          "internalType": "bytes32",
          "name": "",
          "type": "bytes32"
        }
      ],
      "stateMutability": "nonpayable",
      "type": "function"
    },
    {
      "inputs": [
        {
          "internalType": "bytes32",
          "name": "_groupHash",
          "type": "bytes32"
        },
        {
          "internalType": "address",
          "name": "_member",
          "type": "address"
        },
        {
          "internalType": "uint256",
          "name": "_amount",
          "type": "uint256"
        },
        {
          "internalType": "string",
          "name": "_message",
          "type": "string"
        }
      ],
      "name": "createSplitRequest",
      "outputs": [],
      "stateMutability": "nonpayable",
      "type": "function"
    },
    {
      "inputs": [
        {
          "internalType": "bytes32",
          "name": "_groupHash",
          "type": "bytes32"
        }
      ],
      "name": "distributeFunds",
      "outputs": [],
      "stateMutability": "nonpayable",
      "type": "function"
    },
    {
      "inputs": [
        {
          "internalType": "bytes32",
          "name": "",
          "type": "bytes32"
        }
      ],
      "name": "groupBalances",
      "outputs": [
        {
          "internalType": "uint256",
          "name": "",
          "type": "uint256"
        }
      ],
      "stateMutability": "view",
      "type": "function"
    },
    {
      "inputs": [
        {
          "internalType": "bytes32",
          "name": "",
          "type": "bytes32"
        },
        {
          "internalType": "address",
          "name": "",
          "type": "address"
        }
      ],
      "name": "groupMembers",
      "outputs": [
        {
          "internalType": "bool",
          "name": "",
          "type": "bool"
        }
      ],
      "stateMutability": "view",
      "type": "function"
    },
    {
      "inputs": [
        {
          "internalType": "bytes32",
          "name": "",
          "type": "bytes32"
        },
        {
          "internalType": "uint256",
          "name": "",
          "type": "uint256"
        }
      ],
      "name": "groups",
      "outputs": [
        {
          "internalType": "address",
          "name": "",
          "type": "address"
        }
      ],
      "stateMutability": "view",
      "type": "function"
    },
    {
      "inputs": [],
      "name": "owner",
      "outputs": [
        {
          "internalType": "address",
          "name": "",
          "type": "address"
        }
      ],
      "stateMutability": "view",
      "type": "function"
    },
    {
      "inputs": [
        {
          "internalType": "address",
          "name": "_to",
          "type": "address"
        },
        {
          "internalType": "uint256",
          "name": "_amount",
          "type": "uint256"
        }
      ],
      "name": "processPayment",
      "outputs": [],
      "stateMutability": "payable",
      "type": "function"
    },
    {
      "inputs": [
        {
          "internalType": "bytes32",
          "name": "_groupHash",
          "type": "bytes32"
        },
        {
          "internalType": "address",
          "name": "_to",
          "type": "address"
        }
      ],
      "name": "sendGroupFundsTo",
      "outputs": [],
      "stateMutability": "nonpayable",
      "type": "function"
    },
    {
      "stateMutability": "payable",
      "type": "receive"
    }
  ],
  "transactionHash": "0x0c190df4084c89bdb3e7ef06ff1cad8d047e2c2f1dd755971437eee4272572d1",
  "args": [],
  "numDeployments": 3,
  "solcInputHash": "815be942c2b6a721495f5c8e730470ba",
  "bytecode": "0x608060405234801561001057600080fd5b50600080546001600160a01b03191633179055610efc806100326000396000f3fe6080604052600436106100a05760003560e01c80637ed77439116100645780637ed774391461017c57806389b404fa1461019c5780638da5cb5b146101bc578063a43425cb146101dc578063dc2ddcae14610217578063f114c3b01461023757600080fd5b80630b63fe95146100ac5780630ba7d5e1146100c1578063387efc821461011157806349c2b588146101495780636398b76f1461016957600080fd5b366100a757005b600080fd5b6100bf6100ba366004610b5a565b610257565b005b3480156100cd57600080fd5b506100fc6100dc366004610b84565b600260209081526000928352604080842090915290825290205460ff1681565b60405190151581526020015b60405180910390f35b34801561011d57600080fd5b5061013161012c366004610bb0565b6103da565b6040516001600160a01b039091168152602001610108565b34801561015557600080fd5b506100bf610164366004610c75565b610412565b6100bf610177366004610cd6565b610555565b34801561018857600080fd5b506100bf610197366004610b84565b61061e565b3480156101a857600080fd5b506100bf6101b7366004610cd6565b610743565b3480156101c857600080fd5b50600054610131906001600160a01b031681565b3480156101e857600080fd5b506102096101f7366004610cd6565b60036020526000908152604090205481565b604051908152602001610108565b34801561022357600080fd5b50610209610232366004610cef565b610921565b34801561024357600080fd5b506100bf610252366004610b84565b6109db565b600081116102ac5760405162461bcd60e51b815260206004820152601d60248201527f416d6f756e74206d7573742062652067726561746572207468616e203000000060448201526064015b60405180910390fd5b8034146102fb5760405162461bcd60e51b815260206004820152601c60248201527f53656e742076616c7565206d757374206d6174636820616d6f756e740000000060448201526064016102a3565b6000826001600160a01b03168260405160006040518083038185875af1925050503d8060008114610348576040519150601f19603f3d011682016040523d82523d6000602084013e61034d565b606091505b50509050806103955760405162461bcd60e51b81526020600482015260146024820152732330b4b632b2103a379039b2b7321022ba3432b960611b60448201526064016102a3565b6040518281526001600160a01b0384169033907f0538ab32a957d2b55d0ec70a4029e73fdf19f500832839b1d7bafcfbca2a56309060200160405180910390a3505050565b600160205281600052604060002081815481106103f657600080fd5b6000918252602090912001546001600160a01b03169150829050565b600084815260026020908152604080832033845290915290205460ff1661048e5760405162461bcd60e51b815260206004820152602a60248201527f4f6e6c792067726f7570206d656d6265722063616e206372656174652073706c6044820152691a5d081c995c5d595cdd60b21b60648201526084016102a3565b60008481526002602090815260408083206001600160a01b038716845290915290205460ff166105005760405162461bcd60e51b815260206004820152601b60248201527f4d656d626572206d75737420626520696e207468652067726f7570000000000060448201526064016102a3565b826001600160a01b0316336001600160a01b03167f4a67833d24ccb9df4f22a81a48f48dc198536c85850802716b79dfacef6fa94786858560405161054793929190610d7c565b60405180910390a350505050565b600081815260026020908152604080832033845290915290205460ff166105be5760405162461bcd60e51b815260206004820152601f60248201527f4f6e6c792067726f7570206d656d6265722063616e206164642066756e64730060448201526064016102a3565b600081815260036020526040812080543492906105dc908490610dba565b90915550506040805182815234602082015233917fd8c4daa0f4a11864166351e803e8f80ef44d9a5d7058cf5c2d164936836a950d910160405180910390a250565b600082815260026020908152604080832033845290915290205460ff166106875760405162461bcd60e51b815260206004820152601960248201527f4f6e6c792067726f7570206d656d6265722063616e206164640000000000000060448201526064016102a3565b60008281526002602090815260408083206001600160a01b038516845290915290205460ff1661073f576000828152600160208181526040808420805480850182559085528285200180546001600160a01b0319166001600160a01b03871690811790915586855260028352818520818652835293819020805460ff191690931790925590518481523392917fc45b06cdba4c6571442bc66a5f531757b478e6a049b3c25a8418919893769f06910160405180910390a35b5050565b6000546001600160a01b0316331461076d5760405162461bcd60e51b81526004016102a390610dd3565b600081815260036020526040902054806107c25760405162461bcd60e51b81526020600482015260166024820152754e6f2066756e647320746f206469737472696275746560501b60448201526064016102a3565b60008281526001602090815260408083208054825181850281018501909352808352919290919083018282801561082257602002820191906000526020600020905b81546001600160a01b03168152600190910190602001808311610804575b5050505050905060008151836108389190610e14565b905060005b825181101561090c57600083828151811061085a5761085a610e36565b60200260200101516001600160a01b03168360405160006040518083038185875af1925050503d80600081146108ac576040519150601f19603f3d011682016040523d82523d6000602084013e6108b1565b606091505b50509050806108f95760405162461bcd60e51b81526020600482015260146024820152732330b4b632b2103a379039b2b7321022ba3432b960611b60448201526064016102a3565b508061090481610e4c565b91505061083d565b50505060009182525060036020526040812055565b6000808233604051602001610937929190610e65565b60408051601f19818403018152828252805160209182012060008181526002835283812033808352908452848220805460ff1916600190811790915583835280855294822080549586018155825292902090920180546001600160a01b031916821790559092507f4776bb5dba13be979db246c94401749a30950726f3bd5afc4259aa667a0aa1b9916109cd9184918790610e9c565b60405180910390a192915050565b6000546001600160a01b03163314610a055760405162461bcd60e51b81526004016102a390610dd3565b60008281526003602052604090205480610a545760405162461bcd60e51b815260206004820152601060248201526f139bc8199d5b991cc81d1bc81cd95b9960821b60448201526064016102a3565b600083815260036020526040808220829055516001600160a01b0384169083908381818185875af1925050503d8060008114610aac576040519150601f19603f3d011682016040523d82523d6000602084013e610ab1565b606091505b5050905080610af45760405162461bcd60e51b815260206004820152600f60248201526e151c985b9cd9995c8819985a5b1959608a1b60448201526064016102a3565b60408051858152602081018490526001600160a01b038516917f1c1c665fd664063edba93c293a9caa57083a9520e1a80aee63701feb61c0a3ca910160405180910390a250505050565b80356001600160a01b0381168114610b5557600080fd5b919050565b60008060408385031215610b6d57600080fd5b610b7683610b3e565b946020939093013593505050565b60008060408385031215610b9757600080fd5b82359150610ba760208401610b3e565b90509250929050565b60008060408385031215610bc357600080fd5b50508035926020909101359150565b634e487b7160e01b600052604160045260246000fd5b600082601f830112610bf957600080fd5b813567ffffffffffffffff80821115610c1457610c14610bd2565b604051601f8301601f19908116603f01168101908282118183101715610c3c57610c3c610bd2565b81604052838152866020858801011115610c5557600080fd5b836020870160208301376000602085830101528094505050505092915050565b60008060008060808587031215610c8b57600080fd5b84359350610c9b60208601610b3e565b925060408501359150606085013567ffffffffffffffff811115610cbe57600080fd5b610cca87828801610be8565b91505092959194509250565b600060208284031215610ce857600080fd5b5035919050565b600060208284031215610d0157600080fd5b813567ffffffffffffffff811115610d1857600080fd5b610d2484828501610be8565b949350505050565b60005b83811015610d47578181015183820152602001610d2f565b50506000910152565b60008151808452610d68816020860160208601610d2c565b601f01601f19169290920160200192915050565b838152826020820152606060408201526000610d9b6060830184610d50565b95945050505050565b634e487b7160e01b600052601160045260246000fd5b80820180821115610dcd57610dcd610da4565b92915050565b60208082526021908201527f4f6e6c79206f776e65722063616e2063616c6c20746869732066756e6374696f6040820152603760f91b606082015260800190565b600082610e3157634e487b7160e01b600052601260045260246000fd5b500490565b634e487b7160e01b600052603260045260246000fd5b600060018201610e5e57610e5e610da4565b5060010190565b60008351610e77818460208801610d2c565b60609390931b6bffffffffffffffffffffffff19169190920190815260140192915050565b8381526001600160a01b0383166020820152606060408201819052600090610d9b90830184610d5056fea2646970667358221220574a426ce9fdf419e772b0f37c7fdfed03ba3ce93bdf67c6ced79e5d7203faaa64736f6c63430008140033",
  "devdoc": {
    "kind": "dev",
    "methods": {},
    "version": 1
  },
  "userdoc": {
    "kind": "user",
    "methods": {},
    "version": 1
  },
  "storageLayout": {
    "storage": [
      {
        "astId": 3,
        "contract": "contracts/YourContract.sol:PaymentContract",
        "label": "owner",
        "offset": 0,
        "slot": "0",
        "type": "t_address"
      },
      {
        "astId": 8,
        "contract": "contracts/YourContract.sol:PaymentContract",
        "label": "groups",
        "offset": 0,
        "slot": "1",
        "type": "t_mapping(t_bytes32,t_array(t_address)dyn_storage)"
      },
      {
        "astId": 14,
        "contract": "contracts/YourContract.sol:PaymentContract",
        "label": "groupMembers",
        "offset": 0,
        "slot": "2",
        "type": "t_mapping(t_bytes32,t_mapping(t_address,t_bool))"
      },
      {
        "astId": 18,
        "contract": "contracts/YourContract.sol:PaymentContract",
        "label": "groupBalances",
        "offset": 0,
        "slot": "3",
        "type": "t_mapping(t_bytes32,t_uint256)"
      }
    ],
    "types": {
      "t_address": {
        "encoding": "inplace",
        "label": "address",
        "numberOfBytes": "20"
      },
      "t_array(t_address)dyn_storage": {
        "base": "t_address",
        "encoding": "dynamic_array",
        "label": "address[]",
        "numberOfBytes": "32"
      },
      "t_bool": {
        "encoding": "inplace",
        "label": "bool",
        "numberOfBytes": "1"
      },
      "t_bytes32": {
        "encoding": "inplace",
        "label": "bytes32",
        "numberOfBytes": "32"
      },
      "t_mapping(t_address,t_bool)": {
        "encoding": "mapping",
        "key": "t_address",
        "label": "mapping(address => bool)",
        "numberOfBytes": "32",
        "value": "t_bool"
      },
      "t_mapping(t_bytes32,t_array(t_address)dyn_storage)": {
        "encoding": "mapping",
        "key": "t_bytes32",
        "label": "mapping(bytes32 => address[])",
        "numberOfBytes": "32",
        "value": "t_array(t_address)dyn_storage"
      },
      "t_mapping(t_bytes32,t_mapping(t_address,t_bool))": {
        "encoding": "mapping",
        "key": "t_bytes32",
        "label": "mapping(bytes32 => mapping(address => bool))",
        "numberOfBytes": "32",
        "value": "t_mapping(t_address,t_bool)"
      },
      "t_mapping(t_bytes32,t_uint256)": {
        "encoding": "mapping",
        "key": "t_bytes32",
        "label": "mapping(bytes32 => uint256)",
        "numberOfBytes": "32",
        "value": "t_uint256"
      },
      "t_uint256": {
        "encoding": "inplace",
        "label": "uint256",
        "numberOfBytes": "32"
      }
    }
  }
}