{
  "address": "0x28005F8446E62DD034aCD306471f135572083FA0",
  "abi": [
    {
      "inputs": [],
      "stateMutability": "nonpayable",
      "type": "constructor"
    },
    {
      "anonymous": false,
      "inputs": [
        {
          "indexed": false,
          "internalType": "bytes32",
          "name": "groupHash",
          "type": "bytes32"
        },
        {
          "indexed": true,
          "internalType": "address",
          "name": "user",
          "type": "address"
        },
        {
          "indexed": false,
          "internalType": "uint256",
          "name": "amount",
          "type": "uint256"
        }
      ],
      "name": "FundsAdded",
      "type": "event"
    },
    {
      "anonymous": false,
      "inputs": [
        {
          "indexed": false,
          "internalType": "bytes32",
          "name": "groupHash",
          "type": "bytes32"
        },
        {
          "indexed": false,
          "internalType": "address",
          "name": "creator",
          "type": "address"
        }
      ],
      "name": "GroupCreated",
      "type": "event"
    },
    {
      "anonymous": false,
      "inputs": [
        {
          "indexed": false,
          "internalType": "bytes32",
          "name": "groupHash",
          "type": "bytes32"
        },
        {
          "indexed": true,
          "internalType": "address",
          "name": "to",
          "type": "address"
        },
        {
          "indexed": false,
          "internalType": "uint256",
          "name": "amount",
          "type": "uint256"
        }
      ],
      "name": "GroupFundsTransferred",
      "type": "event"
    },
    {
      "anonymous": false,
      "inputs": [
        {
          "indexed": true,
          "internalType": "address",
          "name": "from",
          "type": "address"
        },
        {
          "indexed": true,
          "internalType": "address",
          "name": "to",
          "type": "address"
        },
        {
          "indexed": false,
          "internalType": "uint256",
          "name": "amount",
          "type": "uint256"
        }
      ],
      "name": "PaymentProcessed",
      "type": "event"
    },
    {
      "inputs": [
        {
          "internalType": "bytes32",
          "name": "_groupHash",
          "type": "bytes32"
        }
      ],
      "name": "addFundsToGroup",
      "outputs": [],
      "stateMutability": "payable",
      "type": "function"
    },
    {
      "inputs": [
        {
          "internalType": "bytes32",
          "name": "_groupHash",
          "type": "bytes32"
        },
        {
          "internalType": "address",
          "name": "_member",
          "type": "address"
        }
      ],
      "name": "addToGroup",
      "outputs": [],
      "stateMutability": "nonpayable",
      "type": "function"
    },
    {
      "inputs": [
        {
          "internalType": "string",
          "name": "_groupName",
          "type": "string"
        }
      ],
      "name": "createGroup",
      "outputs": [
        {
          "internalType": "bytes32",
          "name": "",
          "type": "bytes32"
        }
      ],
      "stateMutability": "nonpayable",
      "type": "function"
    },
    {
      "inputs": [
        {
          "internalType": "bytes32",
          "name": "_groupHash",
          "type": "bytes32"
        }
      ],
      "name": "distributeFunds",
      "outputs": [],
      "stateMutability": "nonpayable",
      "type": "function"
    },
    {
      "inputs": [
        {
          "internalType": "bytes32",
          "name": "",
          "type": "bytes32"
        }
      ],
      "name": "groupBalances",
      "outputs": [
        {
          "internalType": "uint256",
          "name": "",
          "type": "uint256"
        }
      ],
      "stateMutability": "view",
      "type": "function"
    },
    {
      "inputs": [
        {
          "internalType": "bytes32",
          "name": "",
          "type": "bytes32"
        },
        {
          "internalType": "address",
          "name": "",
          "type": "address"
        }
      ],
      "name": "groupMembers",
      "outputs": [
        {
          "internalType": "bool",
          "name": "",
          "type": "bool"
        }
      ],
      "stateMutability": "view",
      "type": "function"
    },
    {
      "inputs": [
        {
          "internalType": "bytes32",
          "name": "",
          "type": "bytes32"
        },
        {
          "internalType": "uint256",
          "name": "",
          "type": "uint256"
        }
      ],
      "name": "groups",
      "outputs": [
        {
          "internalType": "address",
          "name": "",
          "type": "address"
        }
      ],
      "stateMutability": "view",
      "type": "function"
    },
    {
      "inputs": [],
      "name": "owner",
      "outputs": [
        {
          "internalType": "address",
          "name": "",
          "type": "address"
        }
      ],
      "stateMutability": "view",
      "type": "function"
    },
    {
      "inputs": [
        {
          "internalType": "address",
          "name": "_to",
          "type": "address"
        },
        {
          "internalType": "uint256",
          "name": "_amount",
          "type": "uint256"
        }
      ],
      "name": "processPayment",
      "outputs": [],
      "stateMutability": "payable",
      "type": "function"
    },
    {
      "inputs": [
        {
          "internalType": "bytes32",
          "name": "_groupHash",
          "type": "bytes32"
        },
        {
          "internalType": "address",
          "name": "_to",
          "type": "address"
        }
      ],
      "name": "sendGroupFundsTo",
      "outputs": [],
      "stateMutability": "nonpayable",
      "type": "function"
    },
    {
      "stateMutability": "payable",
      "type": "receive"
    }
  ],
  "transactionHash": "0x7c92973e9975fd60865a51b70a2ba4cfb61135a04e7137f8c210c0431c3655a3",
  "args": [],
  "numDeployments": 1,
  "solcInputHash": "5dd04d68abdb6f1961948d254fe43299",
  "bytecode": "0x608060405234801561001057600080fd5b50600080546001600160a01b03191633179055610c50806100326000396000f3fe6080604052600436106100955760003560e01c806389b404fa1161005957806389b404fa146101715780638da5cb5b14610191578063a43425cb146101b1578063dc2ddcae146101ec578063f114c3b01461020c57600080fd5b80630b63fe95146100a15780630ba7d5e1146100b6578063387efc82146101065780636398b76f1461013e5780637ed774391461015157600080fd5b3661009c57005b600080fd5b6100b46100af3660046109b8565b61022c565b005b3480156100c257600080fd5b506100f16100d13660046109e2565b600260209081526000928352604080842090915290825290205460ff1681565b60405190151581526020015b60405180910390f35b34801561011257600080fd5b50610126610121366004610a0e565b6103af565b6040516001600160a01b0390911681526020016100fd565b6100b461014c366004610a30565b6103e7565b34801561015d57600080fd5b506100b461016c3660046109e2565b6104b0565b34801561017d57600080fd5b506100b461018c366004610a30565b6105a1565b34801561019d57600080fd5b50600054610126906001600160a01b031681565b3480156101bd57600080fd5b506101de6101cc366004610a30565b60036020526000908152604090205481565b6040519081526020016100fd565b3480156101f857600080fd5b506101de610207366004610a5f565b61077f565b34801561021857600080fd5b506100b46102273660046109e2565b610839565b600081116102815760405162461bcd60e51b815260206004820152601d60248201527f416d6f756e74206d7573742062652067726561746572207468616e203000000060448201526064015b60405180910390fd5b8034146102d05760405162461bcd60e51b815260206004820152601c60248201527f53656e742076616c7565206d757374206d6174636820616d6f756e74000000006044820152606401610278565b6000826001600160a01b03168260405160006040518083038185875af1925050503d806000811461031d576040519150601f19603f3d011682016040523d82523d6000602084013e610322565b606091505b505090508061036a5760405162461bcd60e51b81526020600482015260146024820152732330b4b632b2103a379039b2b7321022ba3432b960611b6044820152606401610278565b6040518281526001600160a01b0384169033907f0538ab32a957d2b55d0ec70a4029e73fdf19f500832839b1d7bafcfbca2a56309060200160405180910390a3505050565b600160205281600052604060002081815481106103cb57600080fd5b6000918252602090912001546001600160a01b03169150829050565b600081815260026020908152604080832033845290915290205460ff166104505760405162461bcd60e51b815260206004820152601f60248201527f4f6e6c792067726f7570206d656d6265722063616e206164642066756e6473006044820152606401610278565b6000818152600360205260408120805434929061046e908490610b26565b90915550506040805182815234602082015233917fd8c4daa0f4a11864166351e803e8f80ef44d9a5d7058cf5c2d164936836a950d910160405180910390a250565b600082815260026020908152604080832033845290915290205460ff166105195760405162461bcd60e51b815260206004820152601960248201527f4f6e6c792067726f7570206d656d6265722063616e20616464000000000000006044820152606401610278565b60008281526002602090815260408083206001600160a01b038516845290915290205460ff1661059d576000828152600160208181526040808420805480850182559085528285200180546001600160a01b0319166001600160a01b03871690811790915586855260028352818520908552909152909120805460ff191690911790555b5050565b6000546001600160a01b031633146105cb5760405162461bcd60e51b815260040161027890610b3f565b600081815260036020526040902054806106205760405162461bcd60e51b81526020600482015260166024820152754e6f2066756e647320746f206469737472696275746560501b6044820152606401610278565b60008281526001602090815260408083208054825181850281018501909352808352919290919083018282801561068057602002820191906000526020600020905b81546001600160a01b03168152600190910190602001808311610662575b5050505050905060008151836106969190610b80565b905060005b825181101561076a5760008382815181106106b8576106b8610ba2565b60200260200101516001600160a01b03168360405160006040518083038185875af1925050503d806000811461070a576040519150601f19603f3d011682016040523d82523d6000602084013e61070f565b606091505b50509050806107575760405162461bcd60e51b81526020600482015260146024820152732330b4b632b2103a379039b2b7321022ba3432b960611b6044820152606401610278565b508061076281610bb8565b91505061069b565b50505060009182525060036020526040812055565b60008082423360405160200161079793929190610bd1565b60408051601f19818403018152828252805160209182012060008181526002835283812033808352908452848220805460ff191660019081179091558383528085528583208054918201815583529184902090910180546001600160a01b031916821790558185529184019190915292507fe6a96675e2b0e31cf54a0b5ba9b935dcd1a4374a0f999a4a071d9144c9b47d56910160405180910390a192915050565b6000546001600160a01b031633146108635760405162461bcd60e51b815260040161027890610b3f565b600082815260036020526040902054806108b25760405162461bcd60e51b815260206004820152601060248201526f139bc8199d5b991cc81d1bc81cd95b9960821b6044820152606401610278565b600083815260036020526040808220829055516001600160a01b0384169083908381818185875af1925050503d806000811461090a576040519150601f19603f3d011682016040523d82523d6000602084013e61090f565b606091505b50509050806109525760405162461bcd60e51b815260206004820152600f60248201526e151c985b9cd9995c8819985a5b1959608a1b6044820152606401610278565b60408051858152602081018490526001600160a01b038516917f1c1c665fd664063edba93c293a9caa57083a9520e1a80aee63701feb61c0a3ca910160405180910390a250505050565b80356001600160a01b03811681146109b357600080fd5b919050565b600080604083850312156109cb57600080fd5b6109d48361099c565b946020939093013593505050565b600080604083850312156109f557600080fd5b82359150610a056020840161099c565b90509250929050565b60008060408385031215610a2157600080fd5b50508035926020909101359150565b600060208284031215610a4257600080fd5b5035919050565b634e487b7160e01b600052604160045260246000fd5b600060208284031215610a7157600080fd5b813567ffffffffffffffff80821115610a8957600080fd5b818401915084601f830112610a9d57600080fd5b813581811115610aaf57610aaf610a49565b604051601f8201601f19908116603f01168101908382118183101715610ad757610ad7610a49565b81604052828152876020848701011115610af057600080fd5b826020860160208301376000928101602001929092525095945050505050565b634e487b7160e01b600052601160045260246000fd5b80820180821115610b3957610b39610b10565b92915050565b60208082526021908201527f4f6e6c79206f776e65722063616e2063616c6c20746869732066756e6374696f6040820152603760f91b606082015260800190565b600082610b9d57634e487b7160e01b600052601260045260246000fd5b500490565b634e487b7160e01b600052603260045260246000fd5b600060018201610bca57610bca610b10565b5060010190565b6000845160005b81811015610bf25760208188018101518583015201610bd8565b50919091019283525060601b6bffffffffffffffffffffffff1916602082015260340191905056fea2646970667358221220e8136ace20d370c49863049e77e2ddc98ece33a7b686bd8321288ae92b43826b64736f6c63430008140033",
  "devdoc": {
    "kind": "dev",
    "methods": {},
    "version": 1
  },
  "userdoc": {
    "kind": "user",
    "methods": {},
    "version": 1
  },
  "storageLayout": {
    "storage": [
      {
        "astId": 3,
        "contract": "contracts/YourContract.sol:PaymentContract",
        "label": "owner",
        "offset": 0,
        "slot": "0",
        "type": "t_address"
      },
      {
        "astId": 8,
        "contract": "contracts/YourContract.sol:PaymentContract",
        "label": "groups",
        "offset": 0,
        "slot": "1",
        "type": "t_mapping(t_bytes32,t_array(t_address)dyn_storage)"
      },
      {
        "astId": 14,
        "contract": "contracts/YourContract.sol:PaymentContract",
        "label": "groupMembers",
        "offset": 0,
        "slot": "2",
        "type": "t_mapping(t_bytes32,t_mapping(t_address,t_bool))"
      },
      {
        "astId": 18,
        "contract": "contracts/YourContract.sol:PaymentContract",
        "label": "groupBalances",
        "offset": 0,
        "slot": "3",
        "type": "t_mapping(t_bytes32,t_uint256)"
      }
    ],
    "types": {
      "t_address": {
        "encoding": "inplace",
        "label": "address",
        "numberOfBytes": "20"
      },
      "t_array(t_address)dyn_storage": {
        "base": "t_address",
        "encoding": "dynamic_array",
        "label": "address[]",
        "numberOfBytes": "32"
      },
      "t_bool": {
        "encoding": "inplace",
        "label": "bool",
        "numberOfBytes": "1"
      },
      "t_bytes32": {
        "encoding": "inplace",
        "label": "bytes32",
        "numberOfBytes": "32"
      },
      "t_mapping(t_address,t_bool)": {
        "encoding": "mapping",
        "key": "t_address",
        "label": "mapping(address => bool)",
        "numberOfBytes": "32",
        "value": "t_bool"
      },
      "t_mapping(t_bytes32,t_array(t_address)dyn_storage)": {
        "encoding": "mapping",
        "key": "t_bytes32",
        "label": "mapping(bytes32 => address[])",
        "numberOfBytes": "32",
        "value": "t_array(t_address)dyn_storage"
      },
      "t_mapping(t_bytes32,t_mapping(t_address,t_bool))": {
        "encoding": "mapping",
        "key": "t_bytes32",
        "label": "mapping(bytes32 => mapping(address => bool))",
        "numberOfBytes": "32",
        "value": "t_mapping(t_address,t_bool)"
      },
      "t_mapping(t_bytes32,t_uint256)": {
        "encoding": "mapping",
        "key": "t_bytes32",
        "label": "mapping(bytes32 => uint256)",
        "numberOfBytes": "32",
        "value": "t_uint256"
      },
      "t_uint256": {
        "encoding": "inplace",
        "label": "uint256",
        "numberOfBytes": "32"
      }
    }
  }
}